{
  "_format": "hh-sol-artifact-1",
  "contractName": "TaskManager",
  "sourceName": "contracts/TaskManager.sol",
  "abi": [
    {
      "inputs": [
        {
          "internalType": "address",
          "name": "_rewardTokenAddress",
          "type": "address"
        }
      ],
      "stateMutability": "nonpayable",
      "type": "constructor"
    },
    {
      "anonymous": false,
      "inputs": [
        {
          "indexed": false,
          "internalType": "uint256",
          "name": "taskId",
          "type": "uint256"
        },
        {
          "indexed": false,
          "internalType": "address",
          "name": "user",
          "type": "address"
        },
        {
          "indexed": false,
          "internalType": "uint256",
          "name": "amount",
          "type": "uint256"
        }
      ],
      "name": "RewardClaimed",
      "type": "event"
    },
    {
      "anonymous": false,
      "inputs": [
        {
          "indexed": false,
          "internalType": "uint256",
          "name": "taskId",
          "type": "uint256"
        },
        {
          "indexed": false,
          "internalType": "address",
          "name": "creator",
          "type": "address"
        },
        {
          "indexed": false,
          "internalType": "string",
          "name": "content",
          "type": "string"
        }
      ],
      "name": "TaskCreated",
      "type": "event"
    },
    {
      "anonymous": false,
      "inputs": [
        {
          "indexed": false,
          "internalType": "uint256",
          "name": "taskId",
          "type": "uint256"
        },
        {
          "indexed": false,
          "internalType": "address",
          "name": "user",
          "type": "address"
        }
      ],
      "name": "TaskDeleted",
      "type": "event"
    },
    {
      "anonymous": false,
      "inputs": [
        {
          "indexed": false,
          "internalType": "uint256",
          "name": "taskId",
          "type": "uint256"
        },
        {
          "indexed": false,
          "internalType": "address",
          "name": "user",
          "type": "address"
        },
        {
          "indexed": false,
          "internalType": "bool",
          "name": "completed",
          "type": "bool"
        }
      ],
      "name": "TaskToggled",
      "type": "event"
    },
    {
      "inputs": [
        {
          "internalType": "uint256",
          "name": "_taskId",
          "type": "uint256"
        }
      ],
      "name": "claimReward",
      "outputs": [],
      "stateMutability": "nonpayable",
      "type": "function"
    },
    {
      "inputs": [
        {
          "internalType": "string",
          "name": "_content",
          "type": "string"
        }
      ],
      "name": "createTask",
      "outputs": [],
      "stateMutability": "nonpayable",
      "type": "function"
    },
    {
      "inputs": [
        {
          "internalType": "uint256",
          "name": "_taskId",
          "type": "uint256"
        }
      ],
      "name": "deleteTask",
      "outputs": [],
      "stateMutability": "nonpayable",
      "type": "function"
    },
    {
      "inputs": [],
      "name": "getMyTasks",
      "outputs": [
        {
          "components": [
            {
              "internalType": "uint256",
              "name": "id",
              "type": "uint256"
            },
            {
              "internalType": "string",
              "name": "content",
              "type": "string"
            },
            {
              "internalType": "bool",
              "name": "completed",
              "type": "bool"
            },
            {
              "internalType": "address",
              "name": "creator",
              "type": "address"
            },
            {
              "internalType": "uint256",
              "name": "reward",
              "type": "uint256"
            }
          ],
          "internalType": "struct TaskManager.Task[]",
          "name": "",
          "type": "tuple[]"
        }
      ],
      "stateMutability": "view",
      "type": "function"
    },
    {
      "inputs": [],
      "name": "getTaskCount",
      "outputs": [
        {
          "internalType": "uint256",
          "name": "",
          "type": "uint256"
        }
      ],
      "stateMutability": "view",
      "type": "function"
    },
    {
      "inputs": [
        {
          "internalType": "uint256",
          "name": "_taskId",
          "type": "uint256"
        }
      ],
      "name": "getTasks",
      "outputs": [
        {
          "components": [
            {
              "internalType": "uint256",
              "name": "id",
              "type": "uint256"
            },
            {
              "internalType": "string",
              "name": "content",
              "type": "string"
            },
            {
              "internalType": "bool",
              "name": "completed",
              "type": "bool"
            },
            {
              "internalType": "address",
              "name": "creator",
              "type": "address"
            },
            {
              "internalType": "uint256",
              "name": "reward",
              "type": "uint256"
            }
          ],
          "internalType": "struct TaskManager.Task",
          "name": "",
          "type": "tuple"
        }
      ],
      "stateMutability": "view",
      "type": "function"
    },
    {
      "inputs": [],
      "name": "rewardAmount",
      "outputs": [
        {
          "internalType": "uint256",
          "name": "",
          "type": "uint256"
        }
      ],
      "stateMutability": "view",
      "type": "function"
    },
    {
      "inputs": [],
      "name": "rewardToken",
      "outputs": [
        {
          "internalType": "contract IRewardToken",
          "name": "",
          "type": "address"
        }
      ],
      "stateMutability": "view",
      "type": "function"
    },
    {
      "inputs": [
        {
          "internalType": "uint256",
          "name": "",
          "type": "uint256"
        }
      ],
      "name": "tasks",
      "outputs": [
        {
          "internalType": "uint256",
          "name": "id",
          "type": "uint256"
        },
        {
          "internalType": "string",
          "name": "content",
          "type": "string"
        },
        {
          "internalType": "bool",
          "name": "completed",
          "type": "bool"
        },
        {
          "internalType": "address",
          "name": "creator",
          "type": "address"
        },
        {
          "internalType": "uint256",
          "name": "reward",
          "type": "uint256"
        }
      ],
      "stateMutability": "view",
      "type": "function"
    },
    {
      "inputs": [
        {
          "internalType": "uint256",
          "name": "_taskId",
          "type": "uint256"
        }
      ],
      "name": "toggleTask",
      "outputs": [],
      "stateMutability": "nonpayable",
      "type": "function"
    },
    {
      "inputs": [
        {
          "internalType": "address",
          "name": "",
          "type": "address"
        },
        {
          "internalType": "uint256",
          "name": "",
          "type": "uint256"
        }
      ],
      "name": "userTasks",
      "outputs": [
        {
          "internalType": "uint256",
          "name": "",
          "type": "uint256"
        }
      ],
      "stateMutability": "view",
      "type": "function"
    }
  ],
  "bytecode": "0x6080604052678ac7230489e8000060035534801561001c57600080fd5b50604051611e70380380611e70833981810160405281019061003e91906100e8565b80600260006101000a81548173ffffffffffffffffffffffffffffffffffffffff021916908373ffffffffffffffffffffffffffffffffffffffff16021790555050610115565b600080fd5b600073ffffffffffffffffffffffffffffffffffffffff82169050919050565b60006100b58261008a565b9050919050565b6100c5816100aa565b81146100d057600080fd5b50565b6000815190506100e2816100bc565b92915050565b6000602082840312156100fe576100fd610085565b5b600061010c848285016100d3565b91505092915050565b611d4c806101246000396000f3fe608060405234801561001057600080fd5b50600436106100a95760003560e01c80638d977672116100715780638d97767214610150578063ae169a5014610184578063c17a340e146101a0578063cf8f4be2146101be578063f7b2a7be146101ee578063f7c618c11461020c576100a9565b8063111002aa146100ae578063560f3192146100ca578063613137a4146100e657806366873a55146101025780636e13f81814610132575b600080fd5b6100c860048036038101906100c39190611179565b61022a565b005b6100e460048036038101906100df91906111f8565b6103d8565b005b61010060048036038101906100fb91906111f8565b61065b565b005b61011c60048036038101906101179190611283565b6107d7565b60405161012991906112d2565b60405180910390f35b61013a610808565b60405161014791906114dd565b60405180910390f35b61016a600480360381019061016591906111f8565b610a93565b60405161017b959493929190611567565b60405180910390f35b61019e600480360381019061019991906111f8565b610b8e565b005b6101a8610e06565b6040516101b591906112d2565b60405180910390f35b6101d860048036038101906101d391906111f8565b610e12565b6040516101e59190611637565b60405180910390f35b6101f6610fac565b60405161020391906112d2565b60405180910390f35b610214610fb2565b60405161022191906116b8565b60405180910390f35b60008080549050905060006040518060a001604052808381526020018481526020016000151581526020013373ffffffffffffffffffffffffffffffffffffffff16815260200160035481525090806001815401808255809150506001900390600052602060002090600402016000909190919091506000820151816000015560208201518160010190816102bf91906118d5565b5060408201518160020160006101000a81548160ff02191690831515021790555060608201518160020160016101000a81548173ffffffffffffffffffffffffffffffffffffffff021916908373ffffffffffffffffffffffffffffffffffffffff160217905550608082015181600301555050600160003373ffffffffffffffffffffffffffffffffffffffff1673ffffffffffffffffffffffffffffffffffffffff1681526020019081526020016000208190806001815401808255809150506001900390600052602060002001600090919091909150557f5b2493258cbc7169ad9389516998320ce25dc27637cea28ddd0d033af122bfa68133846040516103cc939291906119a7565b60405180910390a15050565b600080549050811061041f576040517f08c379a000000000000000000000000000000000000000000000000000000000815260040161041690611a31565b60405180910390fd5b600080828154811061043457610433611a51565b5b906000526020600020906004020190503373ffffffffffffffffffffffffffffffffffffffff168160020160019054906101000a900473ffffffffffffffffffffffffffffffffffffffff1673ffffffffffffffffffffffffffffffffffffffff16146104d6576040517f08c379a00000000000000000000000000000000000000000000000000000000081526004016104cd90611acc565b60405180910390fd5b6000600160003373ffffffffffffffffffffffffffffffffffffffff1673ffffffffffffffffffffffffffffffffffffffff168152602001908152602001600020905060005b81805490508110156105d4578382828154811061053c5761053b611a51565b5b9060005260206000200154036105c757816001838054905061055e9190611b1b565b8154811061056f5761056e611a51565b5b906000526020600020015482828154811061058d5761058c611a51565b5b9060005260206000200181905550818054806105ac576105ab611b4f565b5b600190038181906000526020600020016000905590556105d4565b808060010191505061051c565b50604051806020016040528060008152508260010190816105f591906118d5565b5060008260020160006101000a81548160ff021916908315150217905550600082600301819055507f342ff6c61d8ac95b75821982d3bac415a2f2e4f121b1fccda188bd67d31324b7833360405161064e929190611b7e565b60405180910390a1505050565b60008054905081106106a2576040517f08c379a000000000000000000000000000000000000000000000000000000000815260040161069990611a31565b60405180910390fd5b60008082815481106106b7576106b6611a51565b5b906000526020600020906004020190503373ffffffffffffffffffffffffffffffffffffffff168160020160019054906101000a900473ffffffffffffffffffffffffffffffffffffffff1673ffffffffffffffffffffffffffffffffffffffff1614610759576040517f08c379a000000000000000000000000000000000000000000000000000000000815260040161075090611acc565b60405180910390fd5b8060020160009054906101000a900460ff16158160020160006101000a81548160ff0219169083151502179055507fbc7e5fe208a142dfe2e39f95207205fae6ebe448457cc71f35e83a746ddf586b82338360020160009054906101000a900460ff166040516107cb93929190611ba7565b60405180910390a15050565b600160205281600052604060002081815481106107f357600080fd5b90600052602060002001600091509150505481565b60606000600160003373ffffffffffffffffffffffffffffffffffffffff1673ffffffffffffffffffffffffffffffffffffffff16815260200190815260200160002080548060200260200160405190810160405280929190818152602001828054801561089557602002820191906000526020600020905b815481526020019060010190808311610881575b505050505090506000815167ffffffffffffffff8111156108b9576108b861104e565b5b6040519080825280602002602001820160405280156108f257816020015b6108df610fd8565b8152602001906001900390816108d75790505b50905060005b8251811015610a8a57600083828151811061091657610915611a51565b5b60200260200101518154811061092f5761092e611a51565b5b90600052602060002090600402016040518060a00160405290816000820154815260200160018201805461096290611702565b80601f016020809104026020016040519081016040528092919081815260200182805461098e90611702565b80156109db5780601f106109b0576101008083540402835291602001916109db565b820191906000526020600020905b8154815290600101906020018083116109be57829003601f168201915b505050505081526020016002820160009054906101000a900460ff161515151581526020016002820160019054906101000a900473ffffffffffffffffffffffffffffffffffffffff1673ffffffffffffffffffffffffffffffffffffffff1673ffffffffffffffffffffffffffffffffffffffff168152602001600382015481525050828281518110610a7257610a71611a51565b5b602002602001018190525080806001019150506108f8565b50809250505090565b60008181548110610aa357600080fd5b9060005260206000209060040201600091509050806000015490806001018054610acc90611702565b80601f0160208091040260200160405190810160405280929190818152602001828054610af890611702565b8015610b455780601f10610b1a57610100808354040283529160200191610b45565b820191906000526020600020905b815481529060010190602001808311610b2857829003601f168201915b5050505050908060020160009054906101000a900460ff16908060020160019054906101000a900473ffffffffffffffffffffffffffffffffffffffff16908060030154905085565b6000805490508110610bd5576040517f08c379a0000000000000000000000000000000000000000000000000000000008152600401610bcc90611a31565b60405180910390fd5b6000808281548110610bea57610be9611a51565b5b906000526020600020906004020190503373ffffffffffffffffffffffffffffffffffffffff168160020160019054906101000a900473ffffffffffffffffffffffffffffffffffffffff1673ffffffffffffffffffffffffffffffffffffffff1614610c8c576040517f08c379a0000000000000000000000000000000000000000000000000000000008152600401610c8390611acc565b60405180910390fd5b8060020160009054906101000a900460ff16610cdd576040517f08c379a0000000000000000000000000000000000000000000000000000000008152600401610cd490611c2a565b60405180910390fd5b6000816003015411610d24576040517f08c379a0000000000000000000000000000000000000000000000000000000008152600401610d1b90611c96565b60405180910390fd5b60008160030154905060008260030181905550600260009054906101000a900473ffffffffffffffffffffffffffffffffffffffff1673ffffffffffffffffffffffffffffffffffffffff166340c10f1933836040518363ffffffff1660e01b8152600401610d94929190611cb6565b600060405180830381600087803b158015610dae57600080fd5b505af1158015610dc2573d6000803e3d6000fd5b505050507f24b5efa61dd1cfc659205a97fb8ed868f3cb8c81922bab2b96423e5de1de2cb7833383604051610df993929190611cdf565b60405180910390a1505050565b60008080549050905090565b610e1a610fd8565b6000805490508210610e61576040517f08c379a0000000000000000000000000000000000000000000000000000000008152600401610e5890611a31565b60405180910390fd5b60008281548110610e7557610e74611a51565b5b90600052602060002090600402016040518060a001604052908160008201548152602001600182018054610ea890611702565b80601f0160208091040260200160405190810160405280929190818152602001828054610ed490611702565b8015610f215780601f10610ef657610100808354040283529160200191610f21565b820191906000526020600020905b815481529060010190602001808311610f0457829003601f168201915b505050505081526020016002820160009054906101000a900460ff161515151581526020016002820160019054906101000a900473ffffffffffffffffffffffffffffffffffffffff1673ffffffffffffffffffffffffffffffffffffffff1673ffffffffffffffffffffffffffffffffffffffff1681526020016003820154815250509050919050565b60035481565b600260009054906101000a900473ffffffffffffffffffffffffffffffffffffffff1681565b6040518060a001604052806000815260200160608152602001600015158152602001600073ffffffffffffffffffffffffffffffffffffffff168152602001600081525090565b6000604051905090565b600080fd5b600080fd5b600080fd5b600080fd5b6000601f19601f8301169050919050565b7f4e487b7100000000000000000000000000000000000000000000000000000000600052604160045260246000fd5b6110868261103d565b810181811067ffffffffffffffff821117156110a5576110a461104e565b5b80604052505050565b60006110b861101f565b90506110c4828261107d565b919050565b600067ffffffffffffffff8211156110e4576110e361104e565b5b6110ed8261103d565b9050602081019050919050565b82818337600083830152505050565b600061111c611117846110c9565b6110ae565b90508281526020810184848401111561113857611137611038565b5b6111438482856110fa565b509392505050565b600082601f8301126111605761115f611033565b5b8135611170848260208601611109565b91505092915050565b60006020828403121561118f5761118e611029565b5b600082013567ffffffffffffffff8111156111ad576111ac61102e565b5b6111b98482850161114b565b91505092915050565b6000819050919050565b6111d5816111c2565b81146111e057600080fd5b50565b6000813590506111f2816111cc565b92915050565b60006020828403121561120e5761120d611029565b5b600061121c848285016111e3565b91505092915050565b600073ffffffffffffffffffffffffffffffffffffffff82169050919050565b600061125082611225565b9050919050565b61126081611245565b811461126b57600080fd5b50565b60008135905061127d81611257565b92915050565b6000806040838503121561129a57611299611029565b5b60006112a88582860161126e565b92505060206112b9858286016111e3565b9150509250929050565b6112cc816111c2565b82525050565b60006020820190506112e760008301846112c3565b92915050565b600081519050919050565b600082825260208201905092915050565b6000819050602082019050919050565b611322816111c2565b82525050565b600081519050919050565b600082825260208201905092915050565b60005b83811015611362578082015181840152602081019050611347565b60008484015250505050565b600061137982611328565b6113838185611333565b9350611393818560208601611344565b61139c8161103d565b840191505092915050565b60008115159050919050565b6113bc816113a7565b82525050565b6113cb81611245565b82525050565b600060a0830160008301516113e96000860182611319565b5060208301518482036020860152611401828261136e565b915050604083015161141660408601826113b3565b50606083015161142960608601826113c2565b50608083015161143c6080860182611319565b508091505092915050565b600061145383836113d1565b905092915050565b6000602082019050919050565b6000611473826112ed565b61147d81856112f8565b93508360208202850161148f85611309565b8060005b858110156114cb57848403895281516114ac8582611447565b94506114b78361145b565b925060208a01995050600181019050611493565b50829750879550505050505092915050565b600060208201905081810360008301526114f78184611468565b905092915050565b600082825260208201905092915050565b600061151b82611328565b61152581856114ff565b9350611535818560208601611344565b61153e8161103d565b840191505092915050565b611552816113a7565b82525050565b61156181611245565b82525050565b600060a08201905061157c60008301886112c3565b818103602083015261158e8187611510565b905061159d6040830186611549565b6115aa6060830185611558565b6115b760808301846112c3565b9695505050505050565b600060a0830160008301516115d96000860182611319565b50602083015184820360208601526115f1828261136e565b915050604083015161160660408601826113b3565b50606083015161161960608601826113c2565b50608083015161162c6080860182611319565b508091505092915050565b6000602082019050818103600083015261165181846115c1565b905092915050565b6000819050919050565b600061167e61167961167484611225565b611659565b611225565b9050919050565b600061169082611663565b9050919050565b60006116a282611685565b9050919050565b6116b281611697565b82525050565b60006020820190506116cd60008301846116a9565b92915050565b7f4e487b7100000000000000000000000000000000000000000000000000000000600052602260045260246000fd5b6000600282049050600182168061171a57607f821691505b60208210810361172d5761172c6116d3565b5b50919050565b60008190508160005260206000209050919050565b60006020601f8301049050919050565b600082821b905092915050565b6000600883026117957fffffffffffffffffffffffffffffffffffffffffffffffffffffffffffffffff82611758565b61179f8683611758565b95508019841693508086168417925050509392505050565b60006117d26117cd6117c8846111c2565b611659565b6111c2565b9050919050565b6000819050919050565b6117ec836117b7565b6118006117f8826117d9565b848454611765565b825550505050565b600090565b611815611808565b6118208184846117e3565b505050565b5b818110156118445761183960008261180d565b600181019050611826565b5050565b601f8211156118895761185a81611733565b61186384611748565b81016020851015611872578190505b61188661187e85611748565b830182611825565b50505b505050565b600082821c905092915050565b60006118ac6000198460080261188e565b1980831691505092915050565b60006118c5838361189b565b9150826002028217905092915050565b6118de82611328565b67ffffffffffffffff8111156118f7576118f661104e565b5b6119018254611702565b61190c828285611848565b600060209050601f83116001811461193f576000841561192d578287015190505b61193785826118b9565b86555061199f565b601f19841661194d86611733565b60005b8281101561197557848901518255600182019150602085019450602081019050611950565b86831015611992578489015161198e601f89168261189b565b8355505b6001600288020188555050505b505050505050565b60006060820190506119bc60008301866112c3565b6119c96020830185611558565b81810360408301526119db8184611510565b9050949350505050565b7f5461736b20646f6573206e6f7420657869737400000000000000000000000000600082015250565b6000611a1b6013836114ff565b9150611a26826119e5565b602082019050919050565b60006020820190508181036000830152611a4a81611a0e565b9050919050565b7f4e487b7100000000000000000000000000000000000000000000000000000000600052603260045260246000fd5b7f4e6f7420796f7572207461736b00000000000000000000000000000000000000600082015250565b6000611ab6600d836114ff565b9150611ac182611a80565b602082019050919050565b60006020820190508181036000830152611ae581611aa9565b9050919050565b7f4e487b7100000000000000000000000000000000000000000000000000000000600052601160045260246000fd5b6000611b26826111c2565b9150611b31836111c2565b9250828203905081811115611b4957611b48611aec565b5b92915050565b7f4e487b7100000000000000000000000000000000000000000000000000000000600052603160045260246000fd5b6000604082019050611b9360008301856112c3565b611ba06020830184611558565b9392505050565b6000606082019050611bbc60008301866112c3565b611bc96020830185611558565b611bd66040830184611549565b949350505050565b7f5461736b206e6f7420636f6d706c657465640000000000000000000000000000600082015250565b6000611c146012836114ff565b9150611c1f82611bde565b602082019050919050565b60006020820190508181036000830152611c4381611c07565b9050919050565b7f4e6f2072657761726420617661696c61626c6500000000000000000000000000600082015250565b6000611c806013836114ff565b9150611c8b82611c4a565b602082019050919050565b60006020820190508181036000830152611caf81611c73565b9050919050565b6000604082019050611ccb6000830185611558565b611cd860208301846112c3565b9392505050565b6000606082019050611cf460008301866112c3565b611d016020830185611558565b611d0e60408301846112c3565b94935050505056fea2646970667358221220a0183f5c1c6758313448550f1954058e267d964054d0fed718ccddb9c9c3a23f64736f6c634300081c0033",
  "linkReferences": {},
  "deployedLinkReferences": {}
}